:10000000C0AC002011530000B3900200FD5200006C
:10001000FD520000FD520000FD52000000000000F3
:10002000000000000000000000000000D5530000A8
:10003000FD5200000000000075530000FD5200005A
:10004000D9550000F9940100D9550000D955000098
:10005000D9550000D9550000D9550000D9550000E8
:10006000D9550000D9550000D9550000D9550000D8
:10007000D9550000D9550000D9550000D9550000C8
:10008000D9550000D9550000D9550000D9550000B8
:10009000D9550000D9550000D9550000D9550000A8
:1000A000D9550000D9550000D9550000D955000098
:1000B000D9550000D9550000D9550000D955000088
:1000C000D9550000D9550000D9550000D955000078
:1000D000D9550000D9550000D9550000D955000068
:1000E000D9550000D9550000D9550000D955000058
:1000F000D9550000D9550000D9550000D955000048
:100100007BB972B90029BEBF00204FF0004106E064
:1001100008BF00281CBF6FF000414FF0FF3000F017
:1001200057B8ADF1080C6DE904CE002909DB002BAE
:100130001ADB00F069F8DDF804E0DDE9022304B021
:100140007047404261EB4101002B1BDB00F05CF883
:10015000DDF804E0DDE9022304B0404261EB410137
:10016000524263EB43037047524263EB430300F098
:100170004BF8DDF804E0DDE9022304B0404261EB16
:1001800041017047524263EB430300F03DF8DDF854
:1001900004E0DDE9022304B0524263EB43037047FD
:1001A00053B94AB9002908BF00281CBF4FF0FF31DE
:1001B0004FF0FF3000F00CB8ADF1080C6DE904CE43
:1001C00000F022F8DDF804E0DDE9022304B0704716
:1001D000704700BF10F8012B11F8013B012A28BF1E
:1001E0009A42F7D0D01A7047034611F8012B03F852
:1001F000012B002AF9D17047034613F8012B002A7E
:10020000FBD1181A013870472DE9F04786468C4615
:100210000846089E154674461946002B40F0C280D9
:100220008542B2FA82F245D94AB1C2F1200300FAFE
:1002300002FC2EFA03F3954043EA0C0C94404FEA7B
:10024000154EA8B2BCFBFEF8230C0EFB18CC08FB25
:1002500000F943EA0C43994528D9EB1808F1FF3718
:1002600004D2994502D9A8F102072B44A3EB090354
:10027000A4B2B3FBFEFC0EFB1C330CFB00F044EA03
:100280000344A04214D92C190CF1FF3304D2A0422C
:1002900002D9ACF102032C44241A43EA07401EB1F0
:1002A000D440002334607360BDE8F0874746DDE743
:1002B0006346F1E792BB431B01214FEA154EAFB2F3
:1002C000B3FBFEFC200C0EFB1C330CFB07F840EAD2
:1002D0000343984562D9EB180CF1FF3004D29845DE
:1002E00002D9ACF102002B44A3EB0803A4B2B3FB88
:1002F000FEFC0EFB1C330CFB07F744EA0344A74249
:100300004ED92C190CF1FF3304D2A74202D9ACF11B
:1003100002032C44E41B43EA0040C0E7C2F120037F
:1003200020FA03F1954090402EFA03F303434FEA7D
:10033000154EAFB2B1FBFEFC0EFB1C10190C0CFBF2
:1003400007F841EA0041884504FA02F422D9691805
:100350000CF1FF3004D2884502D9ACF102002944E7
:10036000A1EB08019BB2B1FBFEFC0EFB1C110CFBC8
:1003700007F743EA01439F420ED9EB180CF1FF3116
:1003800004D29F4202D9ACF102012B44DB1B41EAAB
:10039000004192E76046E3E76146F7E76046A3E77E
:1003A0006346B7E7834206D916B9002108467BE7C2
:1003B000C6E900E0F9E7B3FA83F78FB9834201D3C6
:1003C000724508D8BEEB020460EB030301209C4693
:1003D0001EB9002168E73846FAE7C6E9004CF8E79D
:1003E000C7F1200CBB4022FA0CF41C432EFA0CF18E
:1003F00020FA0CF3B84001434FEA14490EFA07F50E
:10040000B3FBF9F81FFA84FE09FB18300B0C08FB4C
:100410000EFA43EA00439A4502FA07F240D9E3187C
:1004200008F1FF3004D29A4502D9A8F10200234412
:10043000A3EB0A0389B2B3FBF9F809FB183308FBF5
:100440000EFE41EA03418E452CD9611808F1FF33B5
:1004500004D28E4502D9A8F10203214443EA0040A8
:10046000A0FB0298A1EB0E014145CE46434602D3C4
:1004700006D14D4504D2B9EB020E68EB04030138F6
:10048000002EA6D0B5EB0E0261EB030101FA0CFCC5
:1004900022FA07F34CEA0303F940C6E9003198E772
:1004A0004046C5E74346D9E7F7B50022114640F676
:1004B000034006F031FD0446002853D106F014FA3B
:1004C000214601AA41F2030006F026FD0446002859
:1004D00048D1019AAD4DD168D1F80100D1F805108D
:1004E00005F1780303C3104605F0F8FC214601AA84
:1004F00041F2010006F010FD044698BB0198C36864
:100500005A7885F870205A88A5F872201A7985F8EB
:100510007120B3F80720A5F87420B3F80530A5F8CA
:10052000763005F0DBFC214601AA41F2020006F01C
:10053000F3FC0446B0B9019FFA6805F18006531C2C
:10054000413218685968344603C40833934226463A
:10055000F7D1384605F0C2FC95F87C305B0604D430
:100560006FF01204204603B0F0BD01AA002142F250
:10057000030006F0D1FC04460028F3D1019B844E11
:10058000DA68D2F80100D2F8051003C6184605F063
:10059000A5FC214601AA42F2020006F0BDFC044679
:1005A0000028DFD1019CE368B3F8012091B249B182
:1005B000D97839B1A5F80421DA78114606F1280076
:1005C0002DF0C0FE204605F089FC95F87C601F23C5
:1005D00016F02006A5F8203119D14FF0FF304FF06A
:1005E000FF3106F039FB0446002800F0C7800221E5
:1005F0000C3005F0DDFD01230370467021463246C4
:1006000040F66D4006F088FC04460028AAD195F813
:100610009C301F0712D501AA002142F21C0006F0EF
:100620007BFC044600289DD10198C368D3F80120C3
:10063000D3F80530C5E9382305F050FC95F8D830DB
:100640009E0625D50DF10201684629F056F90446AB
:10065000002887D14FF0FF304FF0FF3106F0FCFA51
:100660000646002800F08A8004210C3005F0A0FD29
:10067000BDF800300380BDF8023043802246314689
:1006800042F2240006F048FC044600287FF46AAFDA
:1006900095F8D8305C0610D501AA002142F22A0054
:1006A00006F03AFC044600287FF45CAF0198C3686A
:1006B0005B7885F8223105F011FC4FF0FF304FF0E8
:1006C000FF3106F0C9FA0446002857D008210C3043
:1006D00005F06EFD95F8D81011F0400F024640F27B
:1006E000022308BF032388074CBF43F02C0043F0CC
:1006F0000C0095F8D9308F0648BF40F0400013F049
:10070000090F18BF40F40060CE0748BF40F010004A
:10071000002128F033FF2146002242F2010006F0BA
:10072000FBFB044600287FF41DAF95F87C30B5F83C
:100730000411980625D4C9B901AA41F2050006F0B2
:10074000EBFB044600287FF40DAFB5F80431019CA3
:100750004BB9E368B3F80120A5F804219A880D4845
:1007600011462DF0EFFD204605F0B8FB4FF0FF30AD
:100770004FF0FF3106F070FA044668B96FF0680474
:10078000F0E60029F2D16FF00404EBE6000000204F
:10079000D80000200801002008210C3005F008FDD9
:1007A00095F8D830D907024652D42D484FF0005161
:1007B00028F0E4FE2146002240F6014006F0ACFBA2
:1007C000044600287FF4CEAE014601AA4FF6014050
:1007D00006F0A2FB044620BB019805F07FFB2146F2
:1007E00001AA4FF6024006F097FB0446C8B90198EB
:1007F000C368B3F80130A5F8C13005F06FFB95F878
:10080000C1305B070DD501AA21464FF6034006F023
:1008100083FB30B90198C3685B7885F8C03005F078
:100820005DFB29F01AFA044600287FF49BAE08F01D
:10083000E9FE044600287FF495AEEB79002B3FF4E7
:1008400091AE0821074828F0F9FD06F0B9FA89E6CB
:1008500001A1D1E90001ABE79088000200800020EF
:1008600010880002D40000202DE9F843D0E90738B1
:10087000856903EB08042F34A5420F46164619D8A4
:10088000DFF86C80A3FB080117A3D3E90023FFF76F
:1008900087FC0346601BA0FB080123F07F4412A3E2
:1008A000D3E90023FFF77CFC20F07F403C60306000
:1008B000BDE8F883DFF838900BA3D3E90023A5FB4C
:1008C0000901FFF76DFC20F07F440A480A2106A3C6
:1008D000D3E90023E8FB0901FFF762FC20F07F4029
:1008E0003C603060BDE8F8838D49FD1A07000000C8
:1008F00000CA9A3B00166BF1002800F03C812DE9FC
:10090000F04FC74C94F85E2012F001058DB040F016
:100910006E81607EFF2300F00300A37618F028F9B3
:1009200094F85E00420726D4627F94F8293004EBE5
:10093000820204EB8303166AD3F82C8086B1B84890
:10094000314611F069FD33785B0605D506210CF0C0
:10095000A1FE002800F04D81B148414611F05CFD38
:10096000337813F00E0F40F09D8063698BB10C203B
:100970000DB0BDE8F08F2A4604F15F01C0F3C0005E
:1009800018F07AFAFF28A076CED0284618F00AF997
:10099000CAE70FF0E7F98146002800F038810FF030
:1009A000EDF98246002800F02F8112F061F805462B
:1009B000002800F04581D0F888004FF6FF73AB8423
:1009C00005F1100B002800F01A8105F17C0205F1F9
:1009D00078010CF06BFEB5F8763023F4EF6323F06A
:1009E000070343F48C7343F00103A5F8763095F8C0
:1009F000373003F03F0363F07F0385F8373095F815
:100A00008E3023F0070385F88E3095F83C3023F0C4
:100A10000F03002785F83C304FF4C023C5F8883118
:100A20002846C5E91277C5F88870A5F88C7085F856
:100A300039706F85C5F82E702F65A5F88E71A5F8F1
:100A4000847114F0C5F985F85071C5F8549112F00D
:100A5000E7FA95F8943160F3020385F8943112F0C7
:100A6000E5FA95F8943160F3C50385F8943195F86B
:100A7000803167F3410385F880310121284612F067
:100A80000FFF05F1D40013F07BFFC4E9159AC4F8F9
:100A900014B0C5E902772F702D6119F059FB0028B9
:100AA00040F0A980237E0121C3F342030DF12B0006
:100AB0008DF82B300CF096FF024600285DD098F898
:100AC0000110304611F064FA5649574BB4F85C7087
:100AD000A0FB0101C0184FF000054FA3D3E900238C
:100AE00041F10701C4E902552570FFF759FB606029
:100AF0000EF04CFA00F109083FB9357805F00F0502
:100B0000A5F10105B5FA85F56D09207E636865F3E9
:100B1000000010F00105207636D0444A09920020EA
:100B200010600225424A434F04930BAE0193059295
:100B30000321CDE9020006944346009008960797EA
:100B40002A460B950EF024F931460FF0C9F9A0B9E9
:100B5000394905914AF2D8330093CDE90300CDE934
:100B600001000797089606944346012203210B953E
:100B70000EF0F2F82EE011F05BB96369002B3FF440
:100B8000F6AE11F011F9F2E6284A2C48049303F26C
:100B900047130694029591211360A7FB000301FB04
:100BA0000731244B0793224B05934FF6FF730992AD
:100BB000022703930BAE18A3D3E900230B970896E3
:100BC000FFF7EEFA4346CDE900503A4628460321A6
:100BD0000EF0DEF831460FF083F90028CDD194F8FD
:100BE0005E300120034384F85E3017F0A3FF00203D
:100BF000BEE61220BCE611F0D7F80320B8E605F1F6
:100C00008000C5F88800E0E648460FF0B1F80720FC
:100C1000AEE600BFAFF300808D49FD1A070000006B
:100C2000D43F002000CA9A3B8C49FD1AC83F0020DF
:100C30000D200100EDF00000F91A0100002AE78400
:100C400050460FF0A1F848460FF092F8DFE700BFDA
:100C500070B5037E8AB0C3F342030D4604460121FA
:100C60000DF1230016468DF823300CF0BBFE717891
:100C70000246284611F08CF91F49204AA0FB013199
:100C8000981841F107011AA3D3E90023FFF788FA66
:100C900063689842054621D21B1A00220192184A25
:100CA0000293184BA21AA3FB02320221520900231D
:100CB0000A4409AE099114490591CDE90333032192
:100CC000D2B20696009318460EF0C2F831460FF0E5
:100CD00007F938B9656000200AB070BDFBD9C21AA7
:100CE0000023DBE70C200AB070BD00BFAFF300802B
:100CF0008D49FD1A0700000000CA9A3B8C49FD1A75
:100D0000D43F00204FECC44EEDF000000000000086
:100D10002DE9F04F06468DB08A4601200221994602
:100D200015461BF0DBF900220B90022101200CF08C
:100D30000DFD3B494FF4D07230460CF097FCC71CB8
:100D4000384B0093FFB201964B463A4601210020F2
:100D50000EF0D8F810F0FD0F0ED0334A3349344866
:100D600040F6B40327F0B2FB002383F31188BFF3EE
:100D70006F8F0323184602DF2E4CA5FB044526A3E4
:100D8000D3E9002320462946FFF70AFA089606967B
:100D900073680493284B20F07F48A8FB0331E01AC6
:100DA000264B07934FF00702254B059302FB0811D2
:100DB0004FF6FE7365EB010103934FF47A72002343
:100DC000FFF7EEF94FF0000BCDE90180CDF800A060
:100DD0004B463A46012158460DF0BEFF10F0FD0F7C
:100DE0000DD0114A1149124840F6C90327F06EFB95
:100DF0008BF31188BFF36F8F0323184602DF0B9B21
:100E000013B90DB0BDE8F08F0122022110460DB0DC
:100E1000BDE8F04F0CF09ABC8D49FD1A07000000A8
:100E2000302D002085290100D4F8020098F9020035
:100E300054F3020000CA9A3B8D49FD1A252901008E
:100E40004D7F0100000000002DE9F0418468A28C74
:100E50004FF6FF739A428CB044D00546204614F0FA
:100E600055FA2B7D012B00F02081022B00F013811D
:100E7000002B00F0F28094F85061002E40F00E81BB
:100E80002B8AE78D94F93720CDE90A666BB3002AE7
:100E9000C0F258810023A4F88A31AB7CA28D03F004
:100EA0000303551C012BADB23AD0B4F88E31002BA0
:100EB00000F00481AB4240F258815B1B9BB20022E0
:100EC000062BA4F88E31E28540F2F58094F9373094
:100ED0009342C0F24F81002325E09DF82710204661
:100EE00012F082F90CB0BDE8F081002AB8BF84F896
:100EF0007561AB7CA28D03F00303551C012BADB2D1
:100F00000ED0B4F88A31002BCFD0AB4240F23C81F6
:100F10005B1BA4F88A31B4F88E31002BCAD102E0F1
:100F20000023A4F88E3194F83C2063F3820284F805
:100F30003C2029460DF12702204613F085FF74302E
:100F4000CBD0B4F888312BB1AB4240F2EC805B1BC4
:100F5000A4F88831B4F884312BB1AB4240F2DA8086
:100F60005B1BA4F88431E58D16B9AF4200F0C9804F
:100F70000135ADB294F8D13013F0010731D1DDE97C
:100F80000A130A46002B40F0CC80002900F0BB80F9
:100F90001F461846A28C24690694CDE903560332F5
:100FA000994D0290CDE90017D2B20121002005959C
:100FB0000DF04EFF10F0FD0F94D00EF0BBFF8442F9
:100FC00090D0924A9249934840F2825327F07EFA99
:100FD000002383F31188BFF36F8F0323184602DFCA
:100FE00080E794F937206FF30003002A84F8D130AA
:100FF0007FDB94F87600C0F3C00100F0070018F022
:10100000BFFEB4F86E20B4F86C301344E28B03F2E8
:101010003F1313440344804A80480721E3FB002127
:10102000104677A3D3E90023FFF7BAF8DDE90A13E6
:1010300020F07F4260686260904235BF171A801AC4
:10104000002000270A46002BA4D157EA010CA1D1A9
:10105000002858D019461F469CE794F88E3003F0BC
:101060001803182B7FF407AF218DB4F886218B1D50
:101070009A42C4BF931F5B1AB4F88211CCBF9BB2D3
:101080001346994200F09C80A4F88231A4F8843180
:10109000A4F88821EFE63D2684F8506131462046C9
:1010A0000CB0BDE8F04112F09FB80023A4F88831DD
:1010B000A4F88431DFE60126334634E7E28C052AC2
:1010C00097BF013240F2E2434FF4FA7392B203FB4E
:1010D00002F2B4F88C3142F2107101FB0323013BA0
:1010E000B3FBF2F39BB2A4F88E31002B7FF4E2AE97
:1010F00019E794F87700012100F0070018F042FE8C
:101100007FE7354636E7002D43D0002711463846A5
:101110003B463FE70023A4F88431204613F036FF16
:1011200021E7384636E70EF06FFE0146A0B30023F4
:10113000A4F88831A38CC3801B23037100680EF0D0
:1011400035FE07E794F875316BB3013B84F87531D0
:1011500004F1D408404613F055FCB8B3404613F0F0
:1011600051FCB8B30023E38594E60821204612F031
:101170003BF8B7E6A7B9D4F878315A0813F0010361
:1011800036D1C4F87821A6E63E21204612F02CF88C
:10119000A8E6002EB9D1A5E60123A4F88831D9E646
:1011A00013460126BFE60AAA0BA92846FFF75CFBF7
:1011B000DDE90A231343CBD0237884F87531C7E7E0
:1011C000B4F8881100297FF456AE5FE7FF2011F0D4
:1011D000CDFFC3E70246D4E91E010CF07FFA0028D8
:1011E000C0D194F83C301B0744BF238DE38551E602
:1011F00042F000421E46C4F878213B4693E600BF09
:101200008D49FD1A07000000E1280100D4F8020012
:1012100014FA020054F302008C49FD1A00CA9A3BEA
:101220002DE9F04F87B0CDE90423BDF844200378C1
:101230000292BDF84820BDF840B0BDF84C90078E32
:10124000019104460392002B00F00C81013FBFB2D4
:1012500094F87600D4F80C81A7EB09039DB2C0F393
:10126000C00100F00700009518F08AFDE68C052EFD
:1012700040F2F08016FB05F6B6B240F2E24ABBF14E
:10128000050F40F2DB80B4F86E20B4F86C301344E4
:1012900003F2D5130344824A82480721E3FB00216D
:1012A0004FF09613E3619623104623847AA3D3E983
:1012B0000023FEF775FF5D4620F07F4040F2E243D9
:1012C0000AFB06F203FB05F5531E2B44B3FBF5F3B3
:1012D0001FFA83FA606005FB0AF08242564680F0EE
:1012E0009F807049801AA0FB01016BA3D3E9002302
:1012F000FEF756FF20F07F408044628DB4F8143131
:101300001A44914494F83720A9EB07094E44D209B6
:10131000668500F0AE80216C624F03FB0112009BDA
:1013200001FB03F3A16C0A44616C8A4294BFC3EBD6
:101330000203C3EB0103A36418F05AFF064694F8B6
:101340007401C0F3420018F057FF064405FB06F68F
:10135000554B06F5742606F23F26A3FB0636B60C5F
:10136000A36C26640AFB06F06A080344963A93428B
:1013700028BF1346C4E91123049B40F2E24909FB4C
:1013800003F323650023A0FB0701C4F87C3142A3CB
:10139000D3E90023FEF704FF444B059AA8EB0008AD
:1013A000A3FB0230800A09FB00F0A0FB07013AA36F
:1013B000D3E90023FEF7F4FEAE1B20F07F47029B2B
:1013C0002385039BA4F88C3129462046A4F826B037
:1013D00013F076FD364B218D2B44881DB3FBF5F3BE
:1013E0009AB29042A4F8862104D2C1F57F41FA3125
:1013F0000A4492B2019BA4F8822113B10023A4F8FD
:101400008E314346324639462046FFF781FC94F838
:10141000803143F0010384F8803107B0BDE8F08FDC
:10142000121A2048A2FB00011BA3D3E90023FEF7F8
:10143000B7FE20F07F40A8EB00085EE74FF0961360
:101440000BF10105E36196232384ADB20A204FF42A
:10145000FA7335E7009B013616FB03F6B6B24FF47C
:10146000FA7A0CE7438D1F44B0F814311F44BFB221
:10147000EEE6104A1049114840F6851327F026F889
:10148000002787F31188BFF36F8F0323184602DF0D
:101490002E4694E7AFF300808D49FD1A0700000047
:1014A0008C49FD1A00CA9A3B83DE1B435917B7D1FA
:1014B0007FC3C901D4F8020030F4020054F30200E3
:1014C0002DE9F04F0B6891F81180D3F80090037F5D
:1014D000176895B00446C3F38013D0F81E008DF84A
:1014E0003F30B8F1FF0F638C12900E461546ADF8F1
:1014F0004C300DF1480A52D19AE803001090ADF833
:1015000044102346E28D53F82EBB9B78AB722A81A0
:10151000D4F82A306B60D4F83A30C5F8223005F19F
:10152000220094F83E30037105210CF05BFA95F827
:10153000273000F03F0060F3050385F8273094F86A
:101540003F30C3F3040285F82820A28EEA820128E6
:1015500003F01F0392B20AD91B3303F01F030B2BB6
:1015600005D8063A92B240F67A439A4223D900222D
:10157000C9F8082095F82C3062F3000385F82C3068
:10158000E56801265846214626710EF003FC2868BE
:101590002E7129460EF00AFC15B0BDE8F08F10AA96
:1015A0000DF13F01404616F0F7FF9DF83F30023342
:1015B0008DF83F30A5E7336800215960E38EEA8A51
:1015C0002B8340F2E24303FB02F20B92638E0D93F6
:1015D000384613F089FC94F83F2097F874115209AB
:1015E00062F3430187F8741118F002FE0C9097F82B
:1015F0007401C0F3420018F0FFFD0C9A0B991044DF
:1016000001FB00F0BC4A00F5742000F23F20A2FB71
:1016100000204A08800C963A28636A6394F83120C7
:1016200040F2E24302FB03F36B64238FA7F88C3193
:10163000384613F045FC0B99B04BB14AC7F89021DE
:101640000B44B3FBF1F39AB2A7F88621298B881DCE
:10165000824204DDC1F57F41FA310A4492B2A7F813
:1016600082216B68C7F87831234613F81C2FC2F328
:1016700040120C92DA0700F1FC804FF48073A383D0
:1016800099F81A0017F018FD04F12B03002800F058
:10169000EC80626AC4F82B20228D9A80B8F1FF0F8B
:1016A00000F00A81BAF804301298A4F82930C4F87E
:1016B00025009DF83F30A3771098BDF84430C4F85A
:1016C0001F00A4F82330EB8A63862B8BA386B7F820
:1016D0008C31E38697F87431C3F3420384F83830D1
:1016E000384611F0D1F9A882E08021465846746846
:1016F0000EF050FBAB8AE3801C2323710C9BD4F8C3
:101700000080002B40F0CC800C9B23772146404684
:101710000EF04CFB95F86700B5F85C80B5F85E40BC
:10172000012100F0070018F02DFB444404F2D51409
:1017300082460444DFF8CC8173484FF096130721AA
:10174000C5E90333E4FB080169A3D3E90023FEF7ED
:1017500027FD20F07F4078602A6B0B9B0D989D1A27
:10176000F36840F2E24101FB003404F2B344022189
:10177000A41A012000220BF0E9FF484610F008FEF1
:10178000A4EB0A040246A4FB0801144658A3D3E9BB
:101790000023FEF705FDCDF80490B3685B49009186
:1017A00020F07F4AA21C3A3BD2B2534401210020D0
:1017B0000DF0A8FB012800F0858099F81830DB07B0
:1017C00066D4384611F060F94E4BA5FB03980446E9
:1017D00047A3D3E9002348464146FEF7E1FC4C4BC2
:1017E000B6684C4A079220F07F45A5FB0331B9EB60
:1017F0000300494B05934FF4F873069708937B68F1
:101800004FF0000BCDE903B34FF0070303FB0511C5
:1018100068EB01014FF47A720023FEF7C1FC033438
:101820003A3EE4B2CDE90150CDF800A0334622465D
:10183000012158460DF090FA10F0FD0F0DD0374AF7
:101840003749384840F2F11326F040FE8BF31188F7
:10185000BFF36F8F0323184602DF012202211046D7
:101860000BF074FF15B0BDE8F08FC4F82B00988022
:1018700014E72A4A2C492B48FD2326F027FE002393
:1018800083F31188BFF36F8F0323184602DFF4E65A
:10189000002301220093184611460DF0F1FA90E75B
:1018A00095F8273043F0400385F82730281D16F0BF
:1018B00063FC0123288528E70022C4F82520A4F82A
:1018C0002920F6E60EF036FB81453FF476AF134A49
:1018D000164914484FF4267326F0F8FD002383F3CD
:1018E0001188BFF36F8F0323184602DF65E700BF3F
:1018F0008D49FD1A0700000083DE1B437FC3C90129
:10190000404B4C0000CA9A3B8C49FD1A0D7F0100E8
:101910008D49FD1AD97E01004D7F0100F4FE0200C1
:1019200098F9020054F3020074F6020050FF02001E
:101930002DE9F04F8FB00DF137010446DFF8F0A02C
:10194000DFF8F0800DF136000EF0A0FA9DF8363089
:101950009DF837B00B930DF019FBDAF80060A6FB89
:10196000085631A3D3E90023002781463146284693
:10197000FEF716FCCDE90777069420F07F44DAF8ED
:1019800004002D4B0593A0FB080127A3D3E90023F6
:10199000FEF706FC294B20F07F40A4FB0331072211
:1019A00002FB0411CDE90370E81A66EB01014FF464
:1019B0007A720023FEF7F4FB0097CDE901404B4615
:1019C0000B985A4603210DF0C7F910F0FD0404D01E
:1019D0006FF08B000FB0BDE8F08F1948194A002353
:1019E00022F030FD20B9DAF80C000FB0BDE8F08F1E
:1019F0009DF837209DF836000094234603210DF012
:101A00003FFA10F0FD0F0CD00F49104A1048E423A4
:101A100026F05CFD0F4826F059FD0C48E42126F025
:101A20004CFD6FF07300D5E78D49FD1A07000000EB
:101A3000D449002000CA9A3BB19301008D49FD1A98
:101A4000BC490020447B0B00CC0203005C02030075
:101A500054F302001403030038B50F4D04460DF093
:101A600095FAA9680DF094FA696803460B48B3FB30
:101A7000F4F4A1FB00011C4405A3D3E90023FEF705
:101A80008FFB20F07F40844294BF0020012038BDAE
:101A90008D49FD1A07000000D449002000CA9A3B76
:101AA000F0B5C468636883B00546002B64D119F0B3
:101AB00079FE002019F09CFE0021084619F08AFEEC
:101AC00000222521082019F0C7FE474B019301A8E9
:101AD00019F0AEFE454940F25B6019F05DFF237AD4
:101AE000C3F3420262F306132046237218F0A2FDEC
:101AF00017F0BEFB58BB637A9B071FD127682E687F
:101B0000384618F0E3F806446A6806F10901012036
:101B10001AF08AF81AF048F9204610F045FC811CAA
:101B20003246C9B2384618F0D3F8054678BB20468D
:101B300018F074F888B9002003B0F0BD012016F049
:101B4000EDFF4178821C00781AF00EF8D6E7607A33
:101B500010F0030018BF0120F1E7254A2549264867
:101B600040F2294326F0B2FC85F31188BFF36F8F52
:101B70000323184602DFDEE793F82C309A0796D04D
:101B80001E48214619F0CCFD19F0B2FED3E7184AE1
:101B90001B49194840F2114326F098FC194B0721C4
:101BA000A5FB030301FB05310DA3D3E90023FEF7D9
:101BB000F7FA15490246154826F088FC002585F3FA
:101BC0001188BFF36F8F0323184602DF10482146A8
:101BD00019F0A6FD19F08CFE6FF08B00ACE700BF8A
:101BE00000CA9A3B00000000D6BE898E55555500AC
:101BF000F005030040F5020054F30200659E010069
:101C000030F402008D49FD1AA0060300740603009B
:101C100005A20100000000002DE9F041C468A28A7D
:101C20004FF6FF739A4282B000F0DF80054619F04C
:101C300045F82B89628B208CA3831A4492B21044FE
:101C400094F82730E28380B2411C21845E064FF075
:101C50000001618304F1220100F1A18003F03F0043
:101C60000B4694F82810009004F1290016F03CFA75
:101C70000646D4E90C31A28B02FB0333A26B13445A
:101C8000E26B8B4294BFD21852188A4228BF0A4690
:101C9000E263616C226C94F867301144616494F8DB
:101CA0007E2094F82C10C3F3020363F3061112F0A4
:101CB00004024FF0000384F82C10A363236478D04F
:101CC00019F070FD002019F093FD201D19F0B0FDF2
:101CD0002389A17A40F25B6043EA014119F05CFE7E
:101CE000304618F007F82146594819F019FDA08927
:101CF00019F08EFF94F8662094F86700C2F3C003D1
:101D0000002102F0070200F0070019F0ABFE2046A8
:101D100019F086F827682E68384617F0D7FF064472
:101D20006A6806F10901002019F07EFF80461AF06A
:101D30000FF800201AF026F8E36B94F8670003F11F
:101D40002F02636C00F00700012103EB420519F03C
:101D5000C1FD4544054494F8670000F007000228DF
:101D600025D004280CBF4FF4BC73282301211D4447
:101D700019F0B2FD284419F0DDFFA18A0331324683
:101D8000C9B2384617F0A4FF0546002834D12046D2
:101D900017F044FFD0B9002002B0BDE8F0810A4638
:101DA00003F03F03218D16F0EBF9064661E7182397
:101DB000DCE7D4E91A010BF091FC002880D194F8FB
:101DC0007E3043F0040384F87E3079E7214A2249CB
:101DD00022484FF4B07326F079FB85F31188BFF3E6
:101DE0006F8F0323184602DFD5E71D48214619F0FF
:101DF00097FC19F07DFDCEE7164A1A4917484FF4B3
:101E0000AB7326F063FB184B0721A5FB030301FB13
:101E100005310DA3D3E90023FEF7C2F913490246A9
:101E2000134826F053FB002585F31188BFF36F8F0D
:101E30000323184602DF0F48214619F071FC19F000
:101E400057FD6FF08B00A7E700CA9A3B0000000027
:101E500099B001002C07030040F5020054F3020082
:101E6000659E010030F402008D49FD1A80070300D1
:101E700074060300419E01002DE9F3410D461C4903
:101E8000804616461F46FEF7A5F9044690B9042D74
:101E900010D12A4601A93846B047042825D1019B14
:101EA000144A002B136008BF6FF01504204602B0DF
:101EB000BDE8F08110494046FEF78CF9044688B928
:101EC000012D0FD18DF804002A4601A93846B047EC
:101ED00001280AD19DF80430084A003B18BF0123AD
:101EE0001370E3E76FF00104E0E76FF00404DDE74F
:101EF000751503008C010020811503004D5800204A
:101F000037B5034600681B7901249C4043681B6871
:101F10001C420ED10E490F4A0F4840F2356326F09D
:101F2000D5FA0E4826F0D2FA0A4840F2356126F07A
:101F3000C4FA0569836801A95B68984730B92A68C3
:101F4000019B5340234214BF0120002003B030BD49
:101F500003150300D2140300411503005E150300AE
:101F600013B5124B12490446D1F81C24186882425A
:101F700088BF1A601B680F4801939A424FF0040211
:101F800038BFC1F81C340DEB020102F0C5FD50B999
:101F900009488DF8034001220DF1030102F0BCFD58
:101FA00008B9064B1C7002B010BD00BF8C010020A8
:101FB000501A0020701503007C1503004D580020B6
:101FC00030B589B00DF1030302930123022203937C
:101FD00001ABCDE90532002407238DF803208DF8ED
:101FE00010408DF81C300F489DF81C308168134359
:101FF0008DF81C308D68362302A9A8470A4A10B113
:10200000148009B030BDBDF804305BBA40F27121D4
:102010009BB24B434FF4FA51B3FBF1F39BB21380E5
:10202000EFE700BF7CE90200F85700200A4BD3F825
:102030001424002A0EDAB3F810140022A3F58053FA
:102040008A4201D30120704793F83000283310B141
:102050000132F5E700207047501A002030B589B0F2
:1020600002AB83E8030012B9FFF7E0FF58B3012089
:10207000FFF776FF034618BB144D0446EB68B4EB3C
:10208000931F11D395E80F0004AC84E80F00009370
:1020900094E80E000D4825F0F7FC034680B909B01E
:1020A000BDE83040FFF75CBFAB682046984708B1F9
:1020B0000134E3E7204601F0A9F903460028F7D0F0
:1020C000184609B030BD4FF0FF33F9E7500A002041
:1020D00002460B46014821F099BD00BFD8070020F9
:1020E000014821F063BE00BFD807002010B50346A9
:1020F0000A46006819790469012303FA01F143686B
:102100001B6819420ED10E490E4A0F4840F28E63E9
:1021100026F0DCF90D4826F0D9F90A4840F28E6124
:1021200026F0CBF92368194218BF82F0010222B1D0
:102130008368DB68BDE81040184783681B69F9E7CE
:1021400003150300D2140300411503005E150300BC
:102150002DE9F04103460A461979DB8800681343EC
:1021600003F03002302AD0E9014706690ED1324926
:10217000324A334840F2E33326F0A8F9314826F0DA
:10218000A5F940F2E3312D4826F097F92E4A2F4D5C
:102190001A40AA420CD12E49284A294840F2E73376
:1021A00026F094F92B4826F091F940F2E731EAE75E
:1021B00003F00602042A09D12749204A204840F2A8
:1021C000EA3326F083F940F2EA31DCE713F4402FDA
:1021D00013D09A030CD42149184A194840F2ED3320
:1021E00026F074F91E4826F071F940F2ED31CAE785
:1021F0001C4A9A4308BF83F44023246801258D407C
:10220000254223F480120CD117490C4A0C4840F2A5
:10221000FD3326F05BF9154826F058F940F2FD3100
:10222000B1E73468DB074CBF2C43AC4334603B68F8
:10223000BDE8F041184700BF87150300D214030022
:1022400041150300C0150300020003000200010055
:10225000FD1503004A16030099160300CC1603006F
:102260001B17030001001000031503005E15030097
:1022700008B508480021FFF739FF07480021FFF79C
:1022800035FF064B064800221A70BDE8084025F0CD
:102290008BBB00BF08EE0200F0ED02004E5800209C
:1022A0008031002008B50748FFF72AFE48B10648EC
:1022B0000021FFF71BFF054825F076FB044B0122A8
:1022C0001A7008BDF8ED020008EE0200803100200F
:1022D000DA05002038B5154D2B782BB301211448B1
:1022E000FFF704FF022025F044FB124805220121DC
:1022F00025F05DFB30B100212970BDE838400C4865
:10230000FFF7F4BE0B482322022125F050FB0446C0
:102310000028F0D11E2025F02CFB02210548224682
:1023200025F045FB2146E8E738BD00BF4C580020AA
:10233000E8ED02007CE9020008B5034825F005FB42
:10234000003818BF012008BD80310020F7B52948AA
:1023500025F0FBFA20B94FF0FF34204603B0F0BD62
:10236000254F97F82C34002BF5D1244D2B78012BD9
:10237000F1D02B78022BEED0214825F0E6FA044666
:102380000028E8D11F4E25F0E6FAD6E90023904256
:102390009941E0DAFFF74AFE0028DCD00022002352
:1023A0001448C6E9002325F0FFFA02232146164807
:1023B0002B70FFF79BFE154B1C70154B0093154BB4
:1023C000019302AB224613E90300FFF747FE0446E0
:1023D00028B1012387F82C3404232B70BDE705486E
:1023E000012125F0D6FA0C4B1B78002B0CBF0023E3
:1023F0000323F2E77C310020501A00204F580020C0
:1024000080310020380A0020F0ED02004E580020F4
:10241000611F00000D340000DA050020F8B5EFF36D
:102420001187202383F31288BFF36F8F224824F093
:1024300055FA68B9214A22492248882326F046F8ED
:102440001D49214826F042F888211C4826F035F81D
:102450001E4E194824F066FAD6E9004554EA0503F1
:1024600011D025F078FA1A4AD2E90034C01A61EB8B
:1024700004014FF47A720023FDF742FED6E90045CD
:10248000041945EB01050C4824F036FA68B90B4AEB
:1024900010490C4840F2311326F018F806490E484E
:1024A00026F014F840F23111CFE787F31188BFF31B
:1024B0006F8F20462946F8BD84310020561703004F
:1024C000831703004115030098170300480A0020F2
:1024D000400A0020AE170300C51703002DE9F04F96
:1024E000AE4BAF4E93E80700ADF62C0D07AC84E879
:1024F00007001E2200210DF132002CF0E4F8A94B58
:102500000E94CDE90A3328238DF830303C238DF822
:10251000313002238DF84C3001238DF84E301023DA
:102520000F93BFF35B8F56E8003F013346E800325C
:10253000002AF8D1BFF35B8FDFF86C82DFF86CB252
:10254000DFF86CA251E09AF800301BB1404625F04C
:102550002BFA52E0974825F0F8F90028F6D0964B70
:102560001B8840F647529BB29342EFD94FF0FF31A0
:102570004FF0FF30FFF7ACFDFFF750FF02460B4670
:102580008E48DFF83C9225F0CCFB0446FFF7A8FD0F
:102590001CB1042389F80030D8E7DBF808408348F1
:1025A00023680AA9984790B386480021FFF79EFD4B
:1025B0004FF0FF314FF0FF30FFF78AFD01217F48D8
:1025C00025F05AFCFFF78CFD404625F0EDF9042379
:1025D00089F80030BFF35B8F56E8003F013346E8CF
:1025E0000032002AF8D1BFF35B8F404625F0ADF9E9
:1025F0000028A8D10A2025F0BCF9BFF35B8F56E86C
:10260000003F013346E80032002AECD0F7E79AF8A1
:102610000030002BC8D1404625F097F90028C3D0E0
:1026200068480121FFF762FD322025F0A2F99AF8EF
:102630000030002BB8D1404625F087F90028B3D0F0
:10264000636801215846984705460028ACD101230C
:1026500089F800300223029314E0029B002B00F063
:102660008580013B05995848029321F013F8BFF388
:102670005B8F56E8003F013346E80032002AF8D16C
:10268000BFF35B8F404625F060F9002800F0BA8068
:102690009AF8003003F0FF07002B40F0B380CDE93B
:1026A0000577DBF808304148FA2200929C6805AAB9
:1026B00006AB3946A04704460028CED0BFF35B8F57
:1026C000424B53E8002F012A03D143E8007100294F
:1026D000F7D1BFF35B8F3B480021FFF707FDDBF825
:1026E00008703248022389F8003000217B6898473F
:1026F00000210091D7F808C006AB05AA5846E0476C
:10270000002800F0E5804FF0FF304FF0FF31FFF779
:10271000DFFC35B12CB92948AAB214A925F066FB13
:102720000446211E18BF0121244825F0A5FB0546BB
:10273000FFF7D6FC404625F037F9244825F034F958
:10274000002C00F0CA8004231C3489F8003000F00B
:10275000F080FFF78DFDBFF35B8F56E8003F01333C
:1027600046E80032002A00F0C580F6E7069B9B078A
:102770002ED00599144820F08DFFBFF35B8F134BCB
:1027800053E8002F012A03D143E800410029F7D183
:10279000BFF35B8F6FF04C049DE700BF40ED02007C
:1027A000743100200088130080310020BCE9020051
:1027B000DA0500207C310020F8570020500A002064
:1027C0004F58002008EE02006007002078310020FA
:1027D000059B029F0393069BB7EB530F20D30599EC
:1027E000594820F057FFBFF35B8F584B002753E841
:1027F000002F012A03D143E800710029F7D1BFF36C
:102800005B8F49D0404625F0A0F8044600283FF4ED
:1028100062AF9AF80030002B3FF429AF00245AE74A
:10282000039B039A023332F9172033F9173013440C
:1028300003EBD37314AA5B1053530235B5F5FB6F4A
:102840000FD14FF0FF314FF0FF30FFF741FC404810
:102850002A4614A925F0CAFA0446FFF741FC14B928
:1028600025460237B7E70599374820F013FFBFF335
:102870005B8F3649002251E8000F012803D141E85F
:102880000023002BF7D1BFF35B8F0CBF012515464A
:102890007FF421AF15461EE74FF0FF304FF0FF31B8
:1028A000FFF716FC55B12A48AAB214A925F09EFAE2
:1028B000044618B1FFF714FC3D460CE7244825F008
:1028C0000FFB04460025FFF70BFC002C9AD002E713
:1028D00005991D4820F0DEFE0AE775B1042389F84A
:1028E0000030BFF35B8F56E8003F013346E800320B
:1028F000002AF8D1BFF35B8F22E69AF8003063B16B
:10290000032389F80030BFF35B8F56E8003F0133A3
:1029100046E80032002AEDD0F7E789F80040BFF31F
:102920005B8F56E8003F013346E80032002AE1D0D1
:10293000F7E7BFF35B8F56E8003F013346E800320C
:10294000002AD7D0F7E700BF6007002078310020C9
:10295000500A002070B505460C46EFF3118620237F
:1029600083F31288BFF36F8F194823F0B7FF68B95C
:10297000184A19491948882325F0A8FD1449184810
:1029800025F0A4FD8821134825F097FD104823F079
:10299000C9FF144BC3E9005424F0DDFF124BC3E917
:1029A00000010B4823F0A8FF68B90A4A0F490B48F9
:1029B00040F2311325F08AFD05490D4825F086FDCA
:1029C00040F23111DFE786F31188BFF36F8F70BDDE
:1029D00084310020561703008317030041150300BC
:1029E00098170300480A0020400A0020AE17030091
:1029F000C517030008B50D4824F0F2FF18B10C48C4
:102A00000021FFF773FB094824F0EAFF18B10948D9
:102A10000021FFF76BFB054824F0E2FF18B10648E0
:102A20000021FFF763FB012001F0ACFADCE80200B3
:102A300008EE0200F0ED0200E8ED02002DE9F04F93
:102A4000A548A1B024F0CCFF002871D0A24824F002
:102A5000C7FF00286CD0A14C204624F0C1FF0028FD
:102A600066D09D4824F0BCFF002861D09A4824F02D
:102A7000B7FF00285CD09A484FF4B011FFF768FB0D
:102A800098484FF4B011FFF763FB97484FF4B0112B
:102A9000FFF75EFB95484FF48031FFF759FB4FF489
:102AA00080319348FFF754FB9249934B4B604FF4AE
:102AB00080738B60A368DB6913B1012220469847BD
:102AC000D4E901329469C4B11B68DB050ED48B498B
:102AD0008B4A8C484FF4657325F0F8FC8A4825F042
:102AE000F5FC87484FF4657125F0E7FC7B484FF013
:102AF000C0634FF0A0720821A0477C48DFF80C8229
:102B0000834CFFF7FDF9003818BF012088F800005A
:102B100098F80030002B0CBF002303230220237001
:102B200024F027FF7B482BF06EFB30B90423237081
:102B30006FF0120021B0BDE8F08F77482BF063FBF7
:102B40000028F3D00223237000F0D6FF30B1FFF746
:102B50008FFB042323706FF00400EBE74FF0FF318D
:102B60004FF0FF30FFF7B4FA00F09AFB6B4E0028ED
:102B700000F0E680012386F82C3404232370FFF74D
:102B8000AFFA674BD6F81C241B689A4238BFC6F8C8
:102B90001C34FFF715FA00220023CDE90623002399
:102BA0000522CDE90323CDE9013300935D495E4B56
:102BB0005E484FF4805222F09BFC5D4D28462BF07E
:102BC00022FBA8B15B4BAE680FCB18AC84E80F00BA
:102BD0002146B368584C284698470028206007DBF8
:102BE000022133682846984710B14FF0FF33236025
:102BF00024F0B1FE4FF0000BCDE90E01CDE90ABB88
:102C0000CDE910BBCDE908BBCDE912BBCDE90CBBCA
:102C10005F46DA46D84624F09EFE044634480D4608
:102C2000FFF76EF906463148FFF76AF9374BB0F106
:102C3000000914BF012200221A70354A00F0B48046
:102C400000212848FFF752FA3C4824F0ADFE304AF4
:102C5000117809B903211170002E05DAFFF708FB7E
:102C60002B4A0421117000260B9B9E4240F0A2804B
:102C7000B74200F0A180129BE11A139B65EB03029F
:102C8000192972F10002C0F29780002E40F0AF8047
:102C9000B8F1000F07D114F59673109345F10003B6
:102CA0000BF1010B1193BBF1000F12D0109B9C4252
:102CB000119B75EB0302C0F24A81154FBBF1010F66
:102CC0003B7800F30781012B40F01B811B4824F067
:102CD0006BFE0027BB46B4E0DCE80200BCE8020063
:102CE000F0ED020008EE0200E8ED0200F8ED02004F
:102CF00000EE020068310020A52200000315030049
:102D0000D2140300411503005E150300DA0500200C
:102D10004F580020BCE902007CE90200501A002054
:102D20008C01002000620020DD240000B809002092
:102D30001CE902004CED02008801002080310020D7
:102D400014AD284600F058FB95E80F00A6F5805713
:102D500087E80F004FF0FF33C6F81434814B1B781F
:102D60001CADB3B1804B1C93804B1D9395E80300C1
:102D70000122FFF773F900287FF4FCAE7C480121A3
:102D800024F007FE98F80030002B0CBF002303232B
:102D9000F4E6284600F030FB1F9B009395E80E00F8
:102DA000384624F071FEE6E71178032908BF82F85F
:102DB000009051E7CDE91245002F3FF474AFB8F110
:102DC000000F3BD1089BE01A099B40F6B83165EB38
:102DD0000302884272F1000230DB664B1A78002A47
:102DE00040F0828000F0C0FEFFF774FA84E0CDE985
:102DF00008454FF000083746C246089BE01A099B79
:102E000042F2107165EB0302884272F1000218DB96
:102E1000584B1A782AB11A78032A02D01B78042B4F
:102E200007D147F23053E318534A45F10001C2E994
:102E300000314FF0000B4FF0010A02E0BAF1000F31
:102E4000DBD00C9B9C420D9B75EB030222DBFFF752
:102E5000B7F830B9494A128840F6E34192B28A4243
:102E600002D8474824F0A0FD00214648FFF73EF96C
:102E7000454A00211170414A128841F29A0192B2EA
:102E80008A4201D9FFF7F4F914F5FA630C9345F17E
:102E900000030D933D4824F058FD0A9B8342814670
:102EA00057D10E9BE41A0F9B40F6B83265EB030531
:102EB000944275F100054FDA354A1168002903DBA9
:102EC00034488268D26890470A2024F052FDCDE948
:102ED0000A96A0E6012BD9B27FF4FBAE2E4824F06F
:102EE00058FDFFF7F7F9F4E61A78032A3FF47AAFB2
:102EF0001B78042B3FF476AF4FF0000B4FF0010826
:102F00009FE73B78002B7FF4E4AEB9F1000F7FF42C
:102F1000E0AE1A4B1B8840F6AB529BB293427FF651
:102F2000D8AE134824F011FD00283FF4D2AE0020A3
:102F30000021FFF7CDF800287FF4CBAE3B781BB91A
:102F40000F48012124F025FDFFF7CAF8C9E7002743
:102F500077E7CDE90E45AFE7FFF78AF9054A042187
:102F60001170B1E74D580020611F00000D340000C2
:102F70007C3100204F580020380A0020F8570020EC
:102F800080310020F0ED02004E5800207431002006
:102F9000880100201CE902007831002030B5094D7D
:102FA000C0430A44914201D1C04330BD11F8013BF6
:102FB0005840082340F300042C40013B84EA5000B1
:102FC000F8D1EFE72083B8ED10B5034624F00AFDF1
:102FD0000D4A904215D11A79012A12D103F110003D
:102FE00024F000FDB0F5FB6F0BD803F1240024F0B2
:102FF000F9FC0446184624F01AFD231A5842584199
:1030000010BD0020FCE700BF415241332DE9F74FCE
:1030100000F5805A1F46DDE90EB38946DAF8181428
:1030200001930446904624F0E7FCCAF81804E268CD
:103030009042054664D204F5A1560D364FF4006265
:10304000FF2130462BF03FFB2F493046012224F070
:10305000CBFC8AF831249DF844208AF8332404F507
:10306000A1500022414615308AF832948AF834245F
:1030700024F0BAFC04F5A1503946193024F0B4FC10
:1030800004F5A1500D991D3024F0AEFC04F5A250BA
:103090005946013024F0A8FC04F5A25001990530EE
:1030A00024F0A2FC04F5A2501099093024F09CFCF5
:1030B00004F5A25011460D3024F096FC0D9B33B15F
:1030C00004F5A2500C991A4615302BF0D4FA30466C
:1030D00024F0ADFC014604F5A250113004F58057F0
:1030E00024F082FC6B1CC7F818346368314628460C
:1030F000984710B1012387F82C3403B0BDE8F08F56
:103100006FF01B00F9E700BF41524133B0F5806F0B
:103110003FBFC308054AD35C00F007003ABF23FA5B
:1031200000F000F001000120704700BF5060002057
:1031300070B58CB0CDE904010692DDE91064174842
:1031400004AD08AAA3B107930023CDE908310223F7
:10315000CDE90A64CDE9013200950393A4B18368F7
:103160001C6802AB0E490D486A46A0470CB070BD02
:10317000CDE90743CDE909160B94009544B9012325
:10318000CDE901320223039383681C680023E9E739
:103190000223CDE901320393E1E700BF9CE902007D
:1031A00014EE020070B5B0F5803F86B005460C46BF
:1031B0006FD28009FFF7AAFF00286AD13649284656
:1031C00025F01EF8002859D1334B064613F8012B81
:1031D000FF2A55D10136B6F5006FF7D106238DF8D9
:1031E0000E300023CDE900331A4601210DF10E0007
:1031F000FFF79EFF002841D10DF10F01C02024F000
:1032000062FF00283AD19DF80F309A073BD5234B37
:103210001A889B78ADF81020CDE900008DF81230A7
:1032200022463346032104A8FFF782FF30BB102358
:10323000ADF814306BBACDE90000ADF81630024697
:103240000346042105A8FFF773FFB8B90DF10F007D
:1032500024F04BFF90B99DF80F301B0716D40E4990
:10326000284624F0CDFF48B90B494FF400622046B0
:103270002BF031FA002818BF6FF04C0006B070BD7B
:103280006FF01000FAE76FF00C00F7E76FF0040042
:10329000F4E76FF01500F1E7505800205CED0200F4
:1032A0002DE9F04186B051482AF0ADFF28B96FF002
:1032B0001204204606B0BDE8F0814D482AF0A3FF75
:1032C0000028F4D0FF238DF80C300023CDE9003323
:1032D0001A46012103A8FFF72BFF04460028E8D176
:1032E0000021422022F0CEFF0DF10D0024F0FDFE62
:1032F00004460028DDD19F23ADF81030032301934D
:1033000005AB009302460346022104A8FFF710FF15
:1033100004460028CDD19DF81430EF2BC7D19DF87D
:103320001530AA2BC3D19DF81630212BBFD108210F
:10333000B02024F00CFF04460028BAD101468022B8
:103340002C482C4E2BF0BFF901274FEA841800259A
:1033500016E001220DF10E014FF4006024F019FF78
:10336000A8B901220DF10F0124F013FF78B99DF8DF
:103370000E309DF80F201340FF2B08D17DB9012599
:10338000002105EB080024F018FF0028E1D0E20836
:1033900004F00703B15C07FA03F30B43B3540134A1
:1033A000B4F5806FD1D10021A02024F0D0FE0446D6
:1033B00000287FF47EAF1821B02024F0C8FE044618
:1033C00000287FF476AF0DF10D01B02024F07BFED4
:1033D000044600287FF46DAF9DF80D3003F018030C
:1033E000182B18BF6FF0040463E700BF9CE90200CC
:1033F000DCE8020050600020034B10B504460FCB00
:1034000084E80F00204610BD60ED0200B0F5806F2B
:103410007FB505464DD2FFF779FE0346002848D117
:103420000622CDE900008DF80A20012102460DF1A7
:103430000A00FFF77DFE28BB0DF10B01C02024F030
:1034400042FEF8B99DF80B309B0735D5D823AD0166
:10345000ADF80C306BBACDE90000ADF80E30024685
:103460000346042103A8FFF763FE58B90DF10B00D2
:1034700024F03BFE30B99DF80B4014F0040403D057
:103480006FF0040004B070BD0D4E3146601924F099
:10349000B7FE0028F6D10A4A034612F8011BFF299D
:1034A000EED10133B3F5006FF7D10134402CECD1EC
:1034B000E8E76FF01500E5E76FF00C00E2E700BF0A
:1034C00050580020024840F6CD42002321F0EEBDC6
:1034D0002027002010B5044641B9022126F023FE22
:1034E00020460349BDE8104008F07ABB10BD00BF7C
:1034F000900100202DE9FF4104460D4616461F4667
:10350000DFF83C804FF0FF324FF0FF33404620F0B1
:103510007DFB0C4B1B8802930B4B0193BDF82830AD
:10352000009332463B462946204628F03DF90446A2
:10353000404624F089FE204604B0BDE8F08100BF7B
:10354000EC070020D8050020EC050020F8B5EFF3CB
:103550001185202383F31288BFF36F8F1F4823F058
:10356000BDF968B91E4A1F491F48882324F0AEFFE1
:103570001A491E4824F0AAFF8821194824F09DFF0B
:10358000164823F0CFF91A4BD3E900462AF0C5FFBD
:103590004FF47A77A0FB073207FB0121DB0B43EAEC
:1035A0004143E41A0D4866EBD13623F0A5F968B91A
:1035B0000B4A10490C4840F2311324F087FF0749A9
:1035C0000D4824F083FF40F23111D6E785F31188CE
:1035D000BFF36F8F20463146F8BD00BF9831002001
:1035E00056170300831703004115030098170300C3
:1035F00050270020AE170300C5170300F0B58FB0A9
:1036000004F0B0FCFFF7A2FF012871F100030646A9
:10361000ACBF012000200C4609F098F903F0B4FE7D
:1036200000202E49039003AA09F020FD012E74F119
:10363000000302DA039B002B31D0294D0FCD09AFD7
:103640000FC709AF0FCFD5F800C004AD0FC5012ECD
:1036500074F10003B4BFC023002343F003030593B8
:103660000123C5F800C01F49009302221E4B04A885
:1036700004F046FC012E74F1000410DBFFF766FF36
:10368000012871F100010CDAFFF760FF012871F1E8
:1036900000010EDA21220023144821F007FD0FB0AB
:1036A000F0BDFFF753FF012871F10001ECDA0022B1
:1036B000F1E7FFF74BFFC90341EA504140F2E7331E
:1036C000C003C0184FF47A724FF0000341F10001BB
:1036D000FCF766FD02460B46DEE700BF37820200BC
:1036E00070ED020030EE020028EE020020270020DC
:1036F0002DE9F041A94CB6B0CA22002103A82AF056
:10370000E2FFA37865788DF80E30E3788DF80D50E0
:103710008DF80F30A2484FF0FF324FF0FF3320F00A
:1037200075FA032D45D19F4D2B78012B08D19C486C
:1037300024F08AFD09249C4B1B578DF80C30B5E012
:103740002B78022BF3D0FEF7F7FD0028EFD1974B33
:103750001B880E2B3CD1201D24F069FD804604F10E
:10376000080024F064FDA3895A1EB32A07462FD807
:1037700002222E782A704146009302460DF11A0368
:103780008B4824F003FCF6B2042E044605D0894B86
:103790001B78002B0CBF00260326002C2E7080F215
:1037A000C6807F4824F050FD1634162CC3D904235C
:1037B000C3E7013D052D0BD8DFE815F006006200D8
:1037C0000A00D40012012C01784B1B88042B04D072
:1037D000734824F039FD0024ADE701238DF8103043
:1037E000704B754C1B788DF81130724B94F82C246B
:1037F0001B788DF81230714B1B7883F0010343EA7C
:1038000042038DF813306E4BA4F580501B88ADF841
:10381000143024F068FA0DF11601002224F0FEFCA9
:10382000B4F81014D4F814041346A4F5805491424B
:103830001CDC5B48ADF81A3024F006FD10244FF074
:10384000FF334FF0FF325F4820F0E0F9224603A932
:103850005D482AF010FF5D4B5A481C805C4B0022EB
:103860001A7024F0F1FC36B0BDE8F08194F83050C5
:103870001DB990421CBF01339BB201322834D6E7F8
:103880004A4B1B88062BA3D14B4BA288B3F81004DC
:10389000D3F81454A3F5805300241E46A04207DC3D
:1038A00006238DF80C303E4824F0CEFC0424C6E7F5
:1038B00093F8301081B9A5420ED0511E89B252B989
:1038C000282202FB046595F8323043B1344824F0D5
:1038D000BBFC11242FE70A4601342833DEE704FB42
:1038E0000222286904A924F099FCB318B0585C6836
:1038F00005A924F093FC204606A924F08FFCE86972
:1039000007A924F08BFC286A08A924F087FC4FF44F
:103910007A53099341F20103ADF82830204895F815
:1039200031308DF82A301F2424F08EFC87E704A95B
:10393000404624F073FC05A9384624F06FFC22466B
:103940000DF11A010020ADF81840FFF727FB03AB7B
:1039500004F10E01194424F061FC1148123424F0E2
:1039600073FC6CE7114B1B88102B7FF431AF1948A7
:1039700024F05DFC0146184824F059FC0246174823
:1039800024F055FC03460A4824F0C8FA04460448CB
:1039900024F05AFC002C7FF407AF87E7D1600020A9
:1039A000D80700204F580020DF170300FA570020E7
:1039B000500A0020DA050020501A00204E5800203E
:1039C000F8570020EC070020EC050020D805002067
:1039D000D0600020D5600020D9600020DD6000208C
:1039E000144B1B880C2B7FF4F3AE1348134B144C71
:1039F00024F01DFC0146134824F019FCC31861F1A2
:103A000000029C424FF000039341FFF4E1AEFEF749
:103A1000A1FF48E7074B1B88082B7FF4D9AE094864
:103A2000094B24F004FC98427FF4D2AEFEF78EFCE2
:103A3000ACE700BFFA570020D9600020001FF4A1B6
:103A400000767A96D560002045524153F8B51C4661
:103A5000BDF818301546002B37D1231F102B34D852
:103A60009DF81C30DB0730D41678012E30D11A4F68
:103A70001A484FF0FF334FF0FF3220F0C7F83B7881
:103A80002BB1164824F0E0FB6FF0FD00F8BD224694
:103A9000294613482AF0EFFD124A134B0F481C80A9
:103AA00013463E7003F8016BB5F80110A2F801103F
:103AB000EA789A700D4B04221A8024F0C5FB0C4959
:103AC0000C482AF0A4FC2046E0E76FF00C00DDE78C
:103AD0006FF01200DAE700BFD0600020EC07002092
:103AE000D1600020EC050020FA570020D805002006
:103AF000883100208026002013B51449144820F096
:103B00009FFF1449144821F099F9002313491448E0
:103B100000934FF48052072321F020F9114805F05B
:103B20003FFD044670B903F0BDFA044650B925F0D4
:103B300075F9044630B908F009FF07480022002350
:103B400021F0B4FA204602B010BD00BFF1360000EB
:103B500088310020FD350000202700204072002021
:103B6000802600209401002070B5EFF311842023FB
:103B700083F31288BFF36F8F234822F0AFFE68B93A
:103B8000224A23492348882324F0A0FC1E492248C6
:103B900024F09CFC88211D4824F08FFC1A4822F058
:103BA000C1FE2AF0BAFC4FF47A72A0FB020302FBBA
:103BB0000131C30B43EA41434EF660229B18174D77
:103BC00011484FEAD13141F10001C5E9003122F03D
:103BD00093FE68B90D4A12490E4840F2311324F0A1
:103BE00075FC09490F4824F071FC40F23111D2E70D
:103BF00084F31188BFF36F8F0B48BDE8704000223B
:103C0000002321F053BA00BF98310020561703005B
:103C10008317030041150300981703005027002065
:103C2000AE170300C51703002027002010B5094C6C
:103C30000A44914200D110BD11F8013B58400309DC
:103C40000001E35CC0B2434018091B01205CDBB2F9
:103C50005840EEE7FB17030070B50C46002934D03E
:103C600002680B1F9B1AD90823F0070313445D88D1
:103C7000E8070DD4154A16491648AF2324F026FC50
:103C80002146154824F022FCAF21104824F015FCF1
:103C9000104624F0E5FA084432F83060801B814277
:103CA0000BD00A4A0D490B48B72324F00FFC2146DC
:103CB0000B4824F00BFCB721E7E725F001055D80F8
:103CC000BDE87040104624F088BB70BD0B1803009F
:103CD0002E180300411503003F1803007718030056
:103CE0009D1803002DE9F8434B1E0B4006680F4654
:103CF000144611D0C1F1000909EA01094A46042A13
:103D000003F1FF3128BF042219420CD11F46E4B948
:103D100000252846BDE8F883042913D8BDE8F843F8
:103D2000114624F08BBB3049304A31484FF4A6731A
:103D300024F0CCFB2F4824F0C9FB2C484FF4A6718B
:103D400024F0BBFB99460422E1E7BA1A04F007030A
:103D500002F007010B330B44E10801EBD20101EB48
:103D6000D301B368994228BF1946304624F0CEFAF1
:103D700080460028CCD009F1040505EBC0057B1E68
:103D800035441D44B5FBF7F57D43A5EB09052C44EF
:103D90002B1F07349B1B24F00704A41BB0EBD30F8D
:103DA0004FEAD3074FEAE40408D201463A463046C8
:103DB00024F0F9FA4146304624F057FA39463046A5
:103DC00024F04EFA3844844207D23046224624F08A
:103DD000EAFA2146304624F048FA06EBC706738813
:103DE00043F00103738094E7D91803000B18030014
:103DF00041150300F4180300B2F5802F2DE9F041BE
:103E00000ED33C493C4A3D4840F2132324F05EFB6C
:103E10003B4824F05BFB40F21321374824F04DFB74
:103E2000042A0CD83749344A344840F21A2324F083
:103E30004DFB354824F04AFB40F21A21EDE7043AE5
:103E4000CD1D8E1825F0070526F00706761B172EC8
:103E50004FEAD6070CD82D49274A284840F2232399
:103E600024F034FB284824F031FB40F22321D4E72E
:103E7000B7FA87F4C4F12002C4F12404A400073483
:103E8000E408631C4FF00008BB420560AF60C5F852
:103E90000C800CD91E49184A18484FF40E7324F0B0
:103EA00015FB194824F012FB4FF40E71B5E741469B
:103EB000920005F110002AF006FC630043F00103B4
:103EC0006B8005EBC4023B1B5900A5F800805180B4
:103ED000AA1925F83440A2F80280AB5305EBC703BA
:103EE00021465A8842F001025A802846BDE8F04136
:103EF00024F0BBB9111903000B180300411503008E
:103F0000271903003E1903005F1903007819030005
:103F1000A1190300014B1B68184700BFC001002016
:103F200030B585B004460D461022002168462AF0BF
:103F3000CAFB02238DF802302A46044B0193214626
:103F4000684623F0A5FA05B030BD00BF153F00005C
:103F500080B505460E461746984622F04DFA0346B0
:103F60002AF046FCDFF81890044649F80030424633
:103F700030463946A84754F8090001F0E5F900BF7A
:103F80000800000008B50446EFF31183202383F3F3
:103F90001288BFF36F8F1AF0CFFC204602F038F979
:103FA000024824F07DFA25F096F8FCE7CC190300CE
:103FB0002DE9F84F04460846A38B1907154612D47D
:103FC000022803F0070165D1204624F020FB88B1C8
:103FD0000138042800F23781DFE810F05C00350179
:103FE0008200D400040101280CBF43F0100143F00B
:103FF0002001A1831434204622F07EFC002840F0EA
:104000009D819A499A4A9B4840F2311324F05EFA06
:104010002146B1E003F00702501F01281ED80020FE
:10402000062A2768C4E9000014D13A4603E0E08B71
:104030000130E0831268002AF9D123F0070343F02E
:104040000202A283204624F0E2FA90B342F020025A
:10405000A2832EE023F007039AB2F2E7042A33D1B9
:1040600023F007039AB2A283204624F0D0FA10B1BD
:1040700042F02002A283A38B03F00709894540F098
:10408000EC80A18BCA0640F1508121F01003A3837C
:1040900001F00701D4F81880A38BB8F1000FB9DA4A
:1040A0000022276823F00703C4E9002243F001033C
:1040B000A383A38B03F00709894540F0CF80002F2D
:1040C000DFD00026B24644E06B496C4A694840F2B2
:1040D0001B1324F0FBF940F21B11684824F0EDF9A2
:1040E00049B16749654A63484FF4AB7324F0EEF970
:1040F0004FF4AB71F1E723684BB962495F4A5D4801
:1041000040F2571324F0E2F940F25711E5E7236932
:104110001E684EB95C49594A56484FF4AD7324F0B5
:10412000D5F94FF4AD71D8E7A38B23F0070343F023
:1041300006039BB2A3830F4688464FF00609A26888
:10414000002A40F08D80002F40F08D80002E98D006
:10415000BA4643F0080304F1140BA383584622F037
:10416000CBFB002840F09A804049414A414840F248
:10417000311324F0ABF95946444824F0A7F940F232
:104180003111ADE0022909D041493C4A394840F299
:104190005D1324F09BF940F25D119EE7E78B4FB170
:1041A0003C49364A33484FF4AF7324F08FF94FF44B
:1041B000AF7192E723695E684EB933492F4A2D48A3
:1041C00040F2611324F082F940F2611185E7A38B7C
:1041D00023F0070343F004039BB2A383B8464FF0D8
:1041E0000409ACE7012909D02B49244A21484FF49E
:1041F000B27324F06BF94FF4B2716EE723684BB9D8
:1042000020491E4A1B4840F2651324F05FF940F232
:10421000651162E723699E684EB91B49174A154824
:104220004FF4B47324F052F94FF4B47155E7A38BF3
:1042300023F0070343F005039BB20027A383B8468E
:104240004FF005097BE70C490C4A0A4840F26B1312
:1042500024F03CF940F26B113FE7002700266EE79F
:104260004FF0010A75E7924673E700BFAE170300EF
:10427000561703004115030019170300F519030031
:104280001A1A0300261A0300491A0300C51703006F
:10429000601A0300761A0300851A030085F311885B
:1042A000BFF36F8FBAF1000F1CD177BB16B126494F
:1042B0002046B047EFF31185202383F31288BFF324
:1042C0006F8F584622F00AFB38BB204A204921480C
:1042D000882324F0FBF859461F4824F0F7F888217A
:1042E0001A48FBE6A1680029DFD00D680029DCD060
:1042F000D1F804A043464A462046D0471DB12B685A
:1043000029461D46F2E72B46FAE7394643464A4618
:1043100020463F6824F0A7F9C7E7584622F002FB81
:10432000A38B23F00803A383ABE68B067FF562AE75
:1043300021F02003A38301F0070145E685F31188EE
:10434000BFF36F8FBDE8F88F5D4300005617030081
:10435000831703004115030098170300F8B50446BE
:104360000D4600F11406EFF31187202383F3128822
:10437000BFF36F8F304622F0B1FA68B90C4A0D498D
:104380000D48882324F0A2F80C48314624F09EF80A
:104390000748882124F091F8304622F0C3FAA5613D
:1043A0003A4620460121BDE8F840FFF701BE00BFB4
:1043B00056170300831703004115030098170300E5
:1043C0002DE9F04704460F4624F03DF9051E68DB51
:1043D00004F11409EFF3118A202383F31288BFF349
:1043E0006F8F484622F07AFA804660B9384A3949D8
:1043F0003948882324F06AF84946384824F066F89A
:104400008821334842E0484622F08CFAE38BA68BA1
:104410004FF6FF72934206F0070645D0022E15D1E3
:104420000133E3833546484622F066FA002841D13D
:10443000274A2B49284840F2311324F047F84946CF
:10444000284824F043F840F23111DAE7062E13D859
:10445000DFE806F0092D1212090409006FF0850546
:104460004FF00008DFE700233B60636883B9C4E9CD
:10447000007786B13546F3E71B4917481B4A4FF4CE
:10448000E47324F023F819484FF4E47124F015F88C
:104490001F606760EDE7524602212046FFF788FD66
:1044A00035462846BDE8F0876FF00A05D8E76FF07B
:1044B0000405D5E78AF31188BFF36F8FB8F1000FB9
:1044C000EFD0002332463946204624F0CCF8E8E706
:1044D00056170300831703004115030098170300C4
:1044E000AE170300C5170300851A0300F519030072
:1044F000F8B5054600F11406EFF31187202383F386
:104500001288BFF36F8F304622F0E8F960B9264A6F
:1045100026492748882323F0D9FF3146254823F030
:10452000D5FF882120482BE0304622F0FBF9AC8BE8
:1045300004F00704022C17D0012C0CBF6FF0040408
:104540006FF08504304622F0D7F938BB164A1A4975
:10455000174840F2311323F0B9FF3146174823F0D2
:10456000B5FF40F23111DDE7EB8B5BB91449104820
:10457000144A40F2EF1323F0A9FF124840F2EF1162
:1045800023F09BFF013B9BB2EB83002BDAD13A4631
:1045900021462846FFF70CFD2046F8BD87F3118819
:1045A000BFF36F8FF8E700BF5617030083170300B0
:1045B0004115030098170300AE170300C517030049
:1045C0009B1A0300F51903002DE9F0410F4605463B
:1045D000002850D000294ED000F11406EFF31188C6
:1045E000202383F31288BFF36F8F304622F076F9D1
:1045F00060B9224A22492348882323F067FF3146C5
:10460000214823F063FF88211C4817E0304622F040
:1046100089F939462846AC8B23F0DEFF80B104F0DF
:104620000704231F022B0DD918491648184A40F2D7
:104630002D2323F04BFF164840F22D2123F03DFFA0
:104640006FF07704304622F057F968B90B4A1149E8
:104650000C4840F2311323F039FF31460E4823F065
:1046600035FF40F23111CFE788F31188BFF36F8F28
:104670002046BDE8F0816FF01504F9E756170300F6
:10468000831703004115030098170300A91A0300BC
:10469000F5190300AE170300C517030008B54268FB
:1046A000816002F00302022A03460AD0032A4FF077
:1046B000000103D0012A0AD1596006E01868596048
:1046C00008BD186800225A6058B90020F8E706496A
:1046D0000648074A452323F0F9FE0548452123F003
:1046E000ECFE22F03BFDF0E7191703004115030033
:1046F000201B03002DE9F7430F4606460821C06A38
:10470000DFF8509024F055F83C68241A80463C604D
:1047100004EA0905AC4203D8002003B0BDE8F083E9
:1047200008236A462146304623F0DBFF0028F4D1F7
:104730006946304624F047F840B1BDF80230BDF874
:1047400004203C6005EA090513441D44A4EB080459
:10475000E0E700BF0000FFFF73B504460821C06A10
:10476000124E24F026F84FF6FF726368ADF8002071
:104770008DF80620A289191833401344181A002511
:1047800060606846ADF80210ADF8045024F008F8F7
:104790006946204624F0D7F82046211D23F0DAFF91
:1047A000636828463340A36002B070BD0000FFFF7D
:1047B0002DE9F047044688B000F11407384629F087
:1047C00088FDA06A8368DB689847E06228B96FF0CB
:1047D0001505284608B0BDE8F087A06A8368DB6845
:1047E00098470368013B1F2BF1D8A06A216805AAEE
:1047F00027F0FCFF0028EAD1A589002DE7D0069B11
:10480000B5FBF3F203FB1255002DE0D1E389012B38
:10481000DDD9E36A009593F805904FF0FF334FF030
:10482000FF3238461FF0F2F9E06A082123F0C1FF99
:10483000A8460646E3891FFA85FA534508D8E38956
:10484000434523D138461FF0B1FA6FF02C05C0E77D
:10485000A1892B04891B13FA81F14A4608232046BB
:10486000009123F04CFF78B16946204623F072FF97
:1048700008F10108009908234A4620461FFA88F8E3
:1048800023F03DFF0028DAD00135D3E753450BD1A3
:10489000009908234A46891B204623F030FF18B9A7
:1048A0006946204623F056FF69462046FFF722FF5F
:1048B000054618B138461FF079FA8AE7009B636015
:1048C0004FEA13484FEA0848C4F80880D4E90113B6
:1048D00099420FD3082301AA204623F002FF054680
:1048E0000028E7D101AB13F8012B914533D10135F5
:1048F000082DF8D163681B0C1B0469462046009301
:1049000023F028FFA38900994A46204623F0F7FEAA
:10491000051ECFDB636876D006EB03084FF6FF7900
:10492000A389CDF800801FFA88F29B1B9A422ED3F0
:1049300000236168002B43D0090C09040091204634
:10494000694623F007FF0099204623F010FF054633
:10495000002D74D0AEE701A9204623F034FF626831
:1049600010B9921B6260B1E7BDF80850BDF806109F
:10497000E06AC4F80880294423F01BFF40449042B9
:10498000A060EED1002DECD06FF01C0568E008238C
:1049900003AA4146204623F0A4FE0546002889D1FB
:1049A00003A9204623F00FFF30B1BDF80C304B4572
:1049B00002D1BDF810300BB1B044B1E70123B8E724
:1049C000204623F0D4FE054600287FF473AF6368C9
:1049D000264AA18913400B44A3EB460363601340AE
:1049E000A360204623F0D7FFB1E75B1A4A46204672
:1049F00023F085FE051EFFF65DAF08D0E26AA368CE
:104A000012681344A360D4E901318B42EDD8616888
:104A1000A38901EB46029A429AD1DFF85080A2683E
:104A200001EA08039A4293D0204623F0A0FE0546EF
:104A300000287FF43FAF636803EA0803A360A389FB
:104A4000A288A3EB46039A4206D038461FF0AEF97F
:104A5000012323740025BCE6204623F085FF05468C
:104A600038461FF0A3F9002DF2D0B2E60000FFFF98
:104A7000014B036000207047A4EE020070B5104B9C
:104A80001C680D46B4B10F4B196800238B4202DB42
:104A90006FF0010070BD224612F8106B864202D002
:104AA00001331446F2E7E06829F0ADFB28B12C6031
:104AB0000020EFE76FF00C00ECE76FF01200E9E781
:104AC000C4010020A4EE020010B588B04368029330
:104AD0008368C068CDE903320A680023CDE9062364
:104AE0000C4601AA0449059327F084FE079808B9EB
:104AF000059B236008B010BDA78D020002460B463F
:104B000001481FF083B800BF0008002001481FF0D3
:104B10004DB900BF000800202DE9F0410E4B1C6884
:104B200005460E4617469CB14FF0FF304FF0FF315F
:104B3000FFF7E4FF63682046D3F8108032463B4617
:104B40002946C0470446FFF7E1FF2046BDE8F08153
:104B50006FF00104F9E700BF9C31002000230360DF
:104B6000044B5A6812B9C3E90000704710605860DE
:104B7000704700BFA0310020014B1860704700BF94
:104B80009C31002030B585B00023019005464FF0E0
:104B9000FF314FF0FF30CDE90233FFF7AFFF094B94
:104BA0001C6844B9284600F09DF80446FFF7AEFFA4
:104BB000204605B030BD636820461B6801A99847B0
:104BC0002468EEE7A03100201FB5CDE901014FF0C8
:104BD000FF304FF0FF310392FFF790FF074B1C6847
:104BE00024B9FFF793FF204604B010BD6368204648
:104BF0001B6801A998472468F2E700BFA031002094
:104C0000024B0022C3E90022704700BFA031002000
:104C1000024B0022C3E90022FFF7F2BFA8310020B7
:104C20002DE9F74307460C4609B100230B60264DDA
:104C3000DFF8989000264D4524D92549254A264875
:104C40009C2323F043FC254823F040FC21489C2171
:104C500023F033FCD5F8008001AA4146384624F001
:104C6000E4F850B116B954B92E4606E03168002276
:104C7000404624F0DAF80028F5D11835DBE7019B2F
:104C80002360F1E7E6D3164B1D68C5B155F8188CC3
:104C900001AA41463846183D24F0C7F850B116B96C
:104CA00054B92E4606E031680022404624F0BDF893
:104CB0000028F5D1AD69E8E7019B2360F1E73046B4
:104CC00003B0BDE8F08300BF90EC020038ED0200B5
:104CD000781B0300461B030041150300A01B0300C3
:104CE000A83100202DE9F047DFF8CC90DFF8CCA008
:104CF00080464FF000470026314C3D464C4530D9A8
:104D00003049314A314840F2111323F0DFFB30487B
:104D100023F0DCFB2C4840F2111123F0CEFB2F4690
:104D2000EAE7B8F1000F03D122694AB91834E5E780
:104D300020680022414624F078F80028F4D1F5E7F5
:104D40006368BB4205DDAF4209D09D42A8BF1D4646
:104D5000ECE7EBD19047002E08BF0646E6E71D467C
:104D6000E4E7DED3DAF8004004B3183CB8F1000FF2
:104D700003D122694AB9A469F6E7206800224146B6
:104D800024F053F80028F4D1F5E76368BB4205DD51
:104D9000BD4209D09D42A8BF1D46ECE7EBD190472C
:104DA000002E08BF0646E6E71D46E4E7AF42B6D14F
:104DB0003046BDE8F08700BF38ED0200A831002082
:104DC00090EC0200781B0300461B03004115030012
:104DD000A01B030038B50C4D0C484FF0FF334FF0CB
:104DE000FF321EF013FF2B783BB9FFF711FF00F0E5
:104DF0006DF8044610B901232B70002403481EF0FF
:104E0000D5FF204638BD00BFE56000200008002027
:104E10002DE9F047048FDFF8B0A0013498B00646C2
:104E20008946A4B200F10807651EADB2B5F5004F82
:104E300047D04A2305AA2946384623F0ACFF04F59B
:104E40007F543F34A4B28046214601230DF10B026A
:104E5000384623F0A0FFB8F1000F014610DC00280F
:104E600010DC338FAB4209D132466B1E22F8383F3B
:104E70004FF400410223384623F05AFE2C46D3E774
:104E8000002808DC2946384623F021FF2146384611
:104E900023F01DFFE5E708F160030DEB0308002395
:104EA00008F84C3C5246CDF8009003AB05A8039798
:104EB000ADF8104023F0EFFF0028DFD018B0BDE8B8
:104EC000F0870020FAE700BF058F02007FB50125BB
:104ED000694628460195FFF7D1FD044660BB02AA4A
:104EE00001A9284623F081FF044610B110F10C0FF0
:104EF00022D10399B1F5803F23D2009A0023946810
:104F00001846084484421AD30133082BF9D10E4DB8
:104F1000A982EB825368AB602846D368EB6324F028
:104F200089F8044640B9094E6E602846FFF716FE20
:104F300028466E60FFF720FE204604B070BD9BB28D
:104F4000E5E76FF02004F7E7B0310020C80100204A
:104F500030BFFFF7FDBF00BF2DE9F0410B4EDFF87A
:104F6000308006EB0807CC1B05463246094920462F
:104F700029F081FBA01942460021083C29F0A3FB3F
:104F80006C6707F10800BDE8F08100BF0000000079
:104F90000800000038ED0200054B5A699B689A42F0
:104FA0001FBF044A536843F080535360704700BFEB
:104FB000A457002000ED00E0F8B52F4B15469A6A83
:104FC00012F0100F9A6A14BF1124102412F0080F67
:104FD0009A6A18BF1224970706460AD5586B9A6A30
:104FE000140634D519B19A6A22F080029A62132409
:104FF00001E06FF01500204B9A6A12F0010F9A6AD7
:1050000018BF142412F0200F9A6A18BF1524D10675
:1050100002D49B6A9A070AD5174F7B681B0506D5F1
:10502000314600F093FAA8B180F309880224124BAC
:105030009A6A920642BF5A6A22F400525A629A6AE7
:1050400042F0FF029A6200232B702046F8BD6FF0F9
:105050001500CCE7BB6AD906E9D50849084A0948D2
:105060004FF4927323F032FA074823F02FFA0448E2
:105070004FF4927123F021FA00ED00E0F11B0300E0
:10508000BF1B0300411503003B1C0300134B9A6A2E
:1050900012F0007F9A6A14BF1E201D2012F0807F3C
:1050A0009A6A18BF1F2012F4002F9A6A18BF212095
:1050B00012F4802F9A6A18BF222012F4003F9A6AD5
:1050C00018BF232012F4803F9A6A6FEA02426FEA07
:1050D00012429A6218BF2420704700BF00ED00E022
:1050E00010B5194B0246986A9C6A10F4805F14BF91
:1050F0001720162014F4006F9C6A18BF1820A4050E
:1051000009D5986B986A000404D51AB19A6A22F4FA
:1051100000429A6219200C4B9A6A12F4806F9A6AC4
:1051200018BF1A20D2050CD49B6A13F4005F18BF75
:105130001C20054A936A43F47F43936200230B705B
:1051400010BD1B20F5E700BF00ED00E0F0B55D4BA2
:105150005B688BB00446C3F30803002585F3118810
:10516000BFF36F8F02F07F40B0F17F4F08D102F0A4
:105170000C00082804D012074CBF0C46012574B956
:105180005149524A524840F2114323F09FF9514885
:1051900023F09CF940F211414C4823F08EF9002293
:1051A000033B8DF80720032B00F28480DFE803F037
:1051B000027A7E5D434AD36A13F002037AD1D16A40
:1051C00000291ADBD36A5B005FD55369A16943F4F8
:1051D00080735361BFF34F8FBFF36F8F536931F803
:1051E000021C23F480735361BFF34F8FBFF36F8FA3
:1051F0004DF6027399421FD123689DF80720CAB962
:1052000002AE04F1200720686168324603C2083408
:10521000BC421646F7D1099A002D4DD0C2F30801C1
:1052200021B96FEA52226FEA4222099202A9184676
:1052300023F035FF0BB0F0BD936ADBB23BB10DF14B
:10524000070201212046FFF7B7FE0346D5E7936A20
:1052500013F47F4F05D00DF107010120FFF740FF48
:10526000F3E7936AB3F5803F02D3FFF70FFFECE754
:105270001949164A164840F2EA2323F027F917483D
:1052800023F024F940F2EA2186E713490F4A104837
:1052900040F2ED2323F01AF9114823F017F940F2F8
:1052A000ED2179E70DF107020021CBE70DF10701B0
:1052B0000020D3E70023A0E722F4FF7222F00102CE
:1052C000B3E700BF00ED00E05E1C0300BF1B03005E
:1052D00041150300711C030019170300AF1C0300E4
:1052E000D31C0300044B5A6942F010025A615A69F8
:1052F00022F008025A61704700ED00E0EFF30880E9
:10530000EFF3098101B57246FFF720FF01BD00BF31
:105310000B4880F3088819F0DFFB202080F3118808
:1053200008484FF40461401880F30988EFF31480B3
:105330000221084380F31488BFF36F8F00F0CEF88A
:10534000C0AC002000930020084B9B6883420BD127
:10535000EFF3058343B1064B5A6842F080525A601E
:105360005A6A22F400425A6221F04CB8A457002035
:1053700000ED00E014498A684FF030001044EFF36C
:10538000098C80E8F01F202080F31288BFF36F8F14
:105390000E4F4FF000664A698A603E60506F0C4CB9
:1053A0002060906F0023936780F3118804B5104646
:1053B00000F030F9BDE8044002F1300090E8F01F41
:1053C0008CF3098870470000A457002004ED00E02A
:1053D000F03100201EF0040F0CBFEFF30880EFF354
:1053E0000980816911F8021C0229FFD001B57246BB
:1053F00023F05BFE01BD00BF40B2002807DB044A7A
:105400004109012300F01F00834042F8213070471A
:1054100000E100E040B200280CDB4309064900F03F
:105420001F0020330122824041F82320BFF34F8F19
:10543000BFF36F8F704700BF00E100E0054B4209EA
:1054400000F01F0053F82220012303FA00F010405F
:10545000704700BF00E100E038B54B1C072B044645
:105460000D460FD9114A124912486B2323F02EF82A
:10547000114829460723224623F028F80B486B21C0
:1054800023F01BF840B20028ACBF00F160400B4A8B
:105490004FEA4313B8BF00F00F00DBB2AABF00F51C
:1054A0006140135480F8003338BD00BF031D030072
:1054B0003A1D030041150300551D030014ED00E0E3
:1054C000044B054A23F07F039360BFF34F8FBFF374
:1054D0006F8F70470000000000ED00E008B5FFF797
:1054E000EFFF0B4AD2F8883023F47003C2F88830FB
:1054F000EFF3148323F0040383F31488BFF36F8F57
:105500001DF0ECFE21F016FA00F05AF81DF02AFF0B
:1055100000ED00E042F8203C009B42F81C3C0A49A8
:10552000019B42F8183C029B42F8143C21F0010117
:105530004FF0807342F8043C42F8081C0023203AE4
:1055400002658367704700BF513F0000094A034668
:10555000906870B113F1160F406E05D0A0F14002B3
:105560009A4205D8834203D2814228BF0020704767
:1055700000207047A457002008B515460B4A0C4B75
:105580009060426F1A600E4600F044F82C4686F395
:1055900009880020034B9847204600210022002361
:1055A000014C2047C9900200513F0000A457002041
:1055B000F0310020014B10221A61704700ED00E02D
:1055C000044800232021C2180133302B82F8001335
:1055D000F9D1704700E100E008B5EFF30583064A12
:1055E000103B02EBC30152F8330049688847BDE81D
:1055F0000840FFF7D1BC00BFFCE90200024B034AA0
:105600000348012100F076B80000042000000020CB
:10561000C8EE0200426E054B403A1A60044A40212F
:10562000C3E901121846012100F08AB8F4310020C4
:1056300000000B15084AC2F898000B6823F01F03FE
:10564000034343F01003C2F89C308B6843F001031E
:10565000C2F8A030704700BF00ED00E02DE9F04334
:10566000DFF8608085B00E461F4604464FF0000903
:10567000B14523DA6068D8B13FB1411E08421BD161
:105680001F2819D92368194216D12368019323F0E2
:105690003EFDA36803430393D8F89050C5F3072554
:1056A000D0B2013DA84207D801A9FFF7C3FF421CB1
:1056B00009F101090C34DBE76FF01502104605B063
:1056C000BDE8F08300ED00E0044B0522C3F8942010
:1056D000BFF34F8FBFF36F8F704700BF00ED00E047
:1056E000BFF35F8F024B0022C3F89420704700BFC6
:1056F00000ED00E038B50D4D01232A780C46FFF788
:10570000ADFF287016300FD1094A0A490A484FF4F4
:10571000BB7322F0DBFE0948214622F0D7FE044885
:105720004FF4BB7122F0C9FE38BD00BFE660002017
:10573000951D03001917030041150300C41D030044
:1057400010B5144A002312780C46FFF787FF10F1BA
:10575000160F08D0104A0021D2F89030C3F3072367
:10576000984210DB10BD0D4A0D490E4840F29513CA
:1057700022F0ACFE0C48214622F0A8FE074840F279
:10578000951122F09AFEC2F89800C2F8A0100130DC
:10579000E2E700BFE660002000ED00E0951D030099
:1057A0001917030041150300F01D03002DE9F04F08
:1057B000774E784CD6F890302568C3F307239D4286
:1057C00085B013D9744A7549754840F2AD1322F07B
:1057D0007DFED6F8902073482946C2F3072222F0B6
:1057E00075FE40F2AD116C4822F067FEFFF778FFBE
:1057F00000200C2685422DD16B4C6C4F25706846DD
:10580000FFF736F9DFF88881DFF8A4910646002516
:10581000AE4226D123785E490020D1F89020C2F311
:1058200007229342C0F2AA80FFF74EFFD1F89030D2
:10583000C3F30723082B00F0A7805E49564A584857
:1058400040F21F2322F042FE5B4822F03FFE40F26E
:105850001F21C8E7616806FB0011FFF7EBFE01306E
:10586000C8E7009A02EB05132901D3F80CA00AEA55
:105870000700B0F5000F64D00AD8B0F5001F3AD089
:10588000B0F5800F50D0B0F5801F12D00135BFE7C2
:10589000B0F1807F60D0B0F1007FF7D19868D3F885
:1058A00004A0525823F033FCCDE901A240F480203B
:1058B0000BE09868D3F804A0525823F028FCCDE9F7
:1058C00001A240F0885040F430200390D8F8903086
:1058D0002078C3F30723013B984248D92F492E4A29
:1058E0002F4840F2D71322F0F1FD344822F0EEFDAC
:1058F00040F2D71177E79868D3F804B0525823F0F4
:1059000006FC1AF0010F40EA0900CDE901B203904C
:10591000DCD02B49204A22487B2322F0D7FD29489E
:1059200022F0D4FD7B215EE79868D3F804A052589A
:1059300023F0EDFB40F00070CDE901A240F400300F
:10594000C3E79868D3F804A0525823F0E0FBCDE9F0
:1059500001A240F08270B8E79868D3F804A05258CA
:1059600023F0D5FBCDE901A240F08870ADE701A995
:10597000FFF760FE23780133237087E7C1F8983082
:10598000C1F8A000013348E7002005B0BDE8F08F62
:1059900000ED00E0D4EE0200951D0300191703008E
:1059A000411503001D1E0300E66000200000F0FF0B
:1059B00000000811D01E0300201F0300A61E0300D4
:1059C000511E0300771E030008B50649064821F062
:1059D0000701C1F1005202F58022FEF70DFA002006
:1059E00008BD00BF034601200032002008B5094869
:1059F0004FF0FF324FF0FF331EF008F948B106496F
:105A00000648074A7F2322F061FD05487F2122F0E6
:105A100054FD08BDE40100208A1F03004115030066
:105A2000501F030001481EF0C1B900BFE40100206F
:105A300038B50546FFF7DAFF08482A460821FEF781
:105A400051F9044628B925B128F0D2FE044B0C22A6
:105A50001A50FFF7E7FF204638BD00BF0032002094
:105A60000C00000010B50446FFF7C0FF21460348B4
:105A7000FEF7F2F8BDE81040FFF7D4BF0032002077
:105A800070B5A0FB01543CB92846FFF7D1FF06468C
:105A900040B90026304670BD28F0AAFE044B0C2207
:105AA0001A50F6E72A46214628F00DFEF2E700BF1D
:105AB0000C00000070B54169867A0B4D044659B15F
:105AC000437ADB0706D4342303FB0653DB6A1B68E7
:105AD0009B689847002363613420214606FB0050F1
